S00E00006C6172736F6E2E7372656387
S113000012C017C016C015C04CC013C012C011C016
S113001010C00FC00EC00DC00CC00BC00AC009C078
S113002008C007C006C011241FBECFEDCDBF02D04B
S113003042C0E6CF84B7877F84BF88E181BD11BC0D
S11300408FEF8ABB97EF97BB81BB1BBA88E088BB55
S113005012BA81E090E028E080FDC49A81FDC29A42
S113006082FDC19A83FDC09A84FD969A85FD959A76
S113007086FD949A87FD919A90FDD99A91FDD89A1C
S113008092FD929A93FD939A0196B39BFECFEBE770
S1130090F2E93197F1F700C0000028BB12BA1BBA8D
S11300A0DBCF1F920F920FB60F9211240F900FBE49
S10D00B00F901F901895F894FFCFED
S9030000FC
