:1000000014C02EC02DC02CC02BC02AC05EC028C07A
:1000100027C026C025C024C023C022C021C020C0C4
:100020001FC01EC01DC01CC01BC011241FBECFE5B9
:10003000D1E0DEBFCDBF10E0A0E6B0E0E8E5F6E03D
:1000400002C005900D92A836B107D9F720E0A8E6C6
:10005000B0E001C01D92A839B207E1F7E0D1FAC2C1
:10006000CFCF8E3088F5282F30E0280F311D280F94
:10007000311DF901E259FF4FDB01CA019927AA2777
:10008000BB27689412F8B695A7959795879516940F
:10009000D1F78083852F90E0A0E0B0E0689412F85B
:1000A000B695A795979587951694D1F78183862F56
:1000B00090E0A0E0B0E0689412F8B695A795979507
:1000C00087951694D1F7828308951F920F920FB6E9
:1000D0000F9211242F933F934F935F936F937F93CE
:1000E0008F939F93AF93BF93EF93FF9380916D0096
:1000F0008F5F80936D008F3108F452C080916C0047
:100100008F5F80936C008D3388F0809165008F5FE6
:100110008093650010926C0098B388E0892788BBB3
:1001200055D263E070E0BFD180936B008091660090
:10013000880F811D80936600803421F481E08093D4
:10014000660002C080FF02C0929A01C0929880911E
:10015000660081FF02C0939A01C093988091660067
:1001600082FF02C0949A01C094988091660083FF38
:1001700002C0959A01C095988091660084FF02C0E4
:10018000969A01C096988091660085FF02C0C09A39
:1001900001C0C09898B384E0892788BB10926D0095
:1001A000FF91EF91BF91AF919F918F917F916F914F
:1001B0005F914F913F912F910F900FBE0F901F9025
:1001C00018950F931F9380958535A8F4982F990F54
:1001D000990F482F491B415050E060E070E0BA0190
:1001E00055274427982F990F890F8A019B01082BC7
:1001F000C901B8012CC08A3AB8F48555482F440F7C
:10020000480F50E060E070E0762F652F542F4427B0
:10021000982F990F990F891B9FEF980F8A019B01C7
:10022000092BC901B80113C08A5A982F990F990F49
:10023000282F291B2150682F660F860F90E0A0E021
:10024000B0E0DC0199278827BC01CD01722B1F91FA
:100250000F9108958F929F92AF92BF92CF92DF92AB
:10026000EF92FF921F93CF93DF93E0916800F0919C
:1002700069003196E115A5E0FA0729F0F0936900CD
:10028000E093680004C01092690010926800611544
:1002900071058105910519F149015A016B017C0134
:1002A00010E0C8E6D0E0612F70E0762F6627072EB9
:1002B000000C880B990BA501940108D18881820F4D
:1002C00080DFAB01BC01812FCCDE1F5F812F90E06E
:1002D000A0E0B0E08C159D05AE05BF0520F3DF91D1
:1002E000CF911F91FF90EF90DF90CF90BF90AF9094
:1002F0009F908F900895FC0121E030E002C0220F12
:10030000331F4A95E2F792B3822F8095982382B3E8
:1003100092BB3BE63A95F1F7282BAB01440F551FF2
:10032000DA01A60FB71F87E087E001900000000008
:1003300092BB000C22BB08F092BB8150B9F7000CB5
:1003400040F487E092BB000022BB1197019079F73F
:1003500008C092BB87E022BB000092BB11970190BE
:1003600041F792BB08950F931F93CF93DF93882398
:1003700009F450C0182FD0E00CE0C0916A0040E0B2
:1003800050E060E170E08EEF8C0F6BDE40E050E0FB
:1003900060E870E08FEF8C0F64DE40E350E06FEFB9
:1003A00070E08C2F5EDE40E050E060E870E081E0BD
:1003B0008C0F57DE40E050E060E170E082E08C0F8F
:1003C00050DE41E06EE070E08EE690E094DF2FEFCB
:1003D00086E791E0215080409040E1F700C00000A6
:1003E0002091640090916A00920F3AF481E080932A
:1003F0006A002195209364000AC09E301CF49093FB
:100400006A0005C000936A00219520936400DF5FB5
:100410001D13B3CFDF91CF911F910F91089518B89D
:1004200012BA18BA8EE781BB8FE087BBF89483B706
:10043000836083BF89B7826089BF789480916B00A5
:100440008130A9F018F08230F1F0FACF41E06EE08F
:1004500070E08EE690E04FDF2091650030E040E0F4
:1004600050E06EE070E080E090E0F4DEE7CF84E6FC
:100470007ADF2FEF80E792E0215080409040E1F753
:1004800000C00000DBCF41E06EE070E08EE690E05F
:1004900032DF21E030E040E050E06EE070E080E0EC
:1004A00090E0D8DECBCF97FB072E16F4009406D051
:1004B00077FD08D02DD007FC05D03EF490958195AE
:1004C0009F4F0895709561957F4F0895A1E21A2E70
:1004D000AA1BBB1BFD010DC0AA1FBB1FEE1FFF1FE8
:1004E000A217B307E407F50720F0A21BB30BE40B38
:1004F000F50B661F771F881F991F1A9469F760957F
:100500007095809590959B01AC01BD01CF01089538
:10051000AA1BBB1B51E107C0AA1FBB1FA617B70729
:1005200010F0A61BB70B881F991F5A95A9F7809545
:100530009095BC01CD0108958F929F92AF92BF928A
:10054000CF92DF92EF92FF92CF93DF93EC0168811D
:1005500079818A819B81611571058105910521F45D
:1005600064E279ED8BE597E02DE133EF41E050E077
:1005700055D049015A0127EA31E440E050E035D036
:100580006B017C012CEE34EF4FEF5FEFC501B4013E
:100590002CD0DC01CB018C0D9D1DAE1DBF1DB7FF06
:1005A00003C00197A109B04888839983AA83BB83BC
:1005B0009F77DF91CF91FF90EF90DF90CF90BF902A
:1005C000AF909F908F900895B7DF089580E690E0F8
:1005D000B3DF0895A0E0B0E08093600090936100E5
:1005E000A0936200B09363000895EE27FF27AA2727
:1005F000BB2708C0A20FB31FE41FF51F220F331F34
:10060000441F551F969587957795679598F3704089
:10061000A9F7009799F7BD01CF010895052E97FB23
:1006200016F400940FD057FD05D050DF07FC02D020
:1006300046F408C050954095309521953F4F4F4F57
:100640005F4F089590958095709561957F4F8F4F7E
:080650009F4F0895F894FFCFBD
:08065800010000000101010096
:00000001FF
