:1000000012C02BC02AC029C028C027C026C025C0C6
:1000100024C023C022C021C020C01FC01EC01DC0DC
:100020001CC01BC01AC011241FBECFEDCDBF10E0F5
:10003000A0E6B0E0ECEFF3E003C0C89531960D9276
:10004000A036B107D1F710E0A0E6B0E001C01D92E4
:10005000A036B107E1F702D0D0C1D2CFC5ECD0E0D5
:10006000DEBFCDBF91E09F8784E0888B22E0298BA3
:100070009A8B84B7877F84BF88E181BD11BC1ABA8F
:100080008FE087BB8EE781BB83E08BBB80E188BBC1
:1000900012BA9C8B11E0812E912CBEEF4B2EAA241C
:1000A000AB8ABA2C522E6624772443942B892415CC
:1000B00008F0D5C0442486B39927482F592F4071A2
:1000C000507084FD20C00894811C911C85E6881620
:1000D000910450F0842E952E672821F4A1E06A2E19
:1000E000712C02C0642E752E9C89992389F053943B
:1000F000852D8250823010F41B8A03C0F1E05F2E00
:100100005B8A1C8A05C0E1E0EC8BE1E08E2E912C2D
:10011000B394F3E05F1609F4B394B7FE07C0BB24B1
:10012000AA2019F471E0A72E01C0AB2C4B2D552746
:10013000AA2091F4415F5F4F64E0559547956A9519
:10014000E1F7242F842F8295807F9B2D981B092F08
:10015000015F492F419512C08FE790E0841B950BFA
:1001600034E0959587953A95E1F7282F4B2D4195E9
:100170008295807F481B41580FE0041BEC2EFD2E1A
:100180000894E11CF11CFF2DEE2D18E01192115086
:1001900017FFFCCF10E0A0E0B0E0AA2021F4322F3E
:1001A000311B3E5F03C0322F310F325039304CF0DB
:1001B000832F992787FD90956EEF7FEF0CD1380F35
:1001C000305F37FD31958C2F9D2F0A96F92FE82F40
:1001D000EA0FFB1F30831F5F11961530F4F22BE0FE
:1001E000C22ED12CCC0EDD1EAFE0B0E0AC0FBD1F97
:1001F000282F392F13E0F32FE22F81912E2F3F2F3D
:10020000E82FFF27E7FDF095EE0DFF1D8C91602F85
:10021000D9D09081980F9083FD2DEC2D8191CE2E19
:10022000DF2EE82FFF27E7FDF095EE0DFF1D8D91E6
:10023000642FC8D09081980F9083115017FFDBCFA7
:10024000F981FD8B2A812E8B8B818F8B9C81988FDE
:10025000ED81E98FFE81FA8F2F8038840985611442
:10026000710409F062C02D89622F772730E1572D84
:10027000462D1BE3461757071CF484E082BB01C0E0
:1002800012BAEE898E2F9927481759071CF488E077
:1002900082BB01C012BAFF898F2F992748175907CF
:1002A00014F432BB01C012BA288D822F9927481747
:1002B00059071CF480E282BB01C012BAE98D8E2F6F
:1002C0009927481759071CF480E482BB01C012BA71
:1002D000FA8D8F2F9927481759071CF481E188BBA5
:1002E00001C038BB12BA822D9927481759071CF450
:1002F00082E188BB01C038BB832D99274817590775
:100300001CF484E188BB01C038BB802F99274817B3
:1003100059071CF488E188BB01C038BB11504F5FFE
:100320005F4F38BB17FFA6CFC0CE2D89C22EDD246C
:100330008E89E82EFF249F89A92FBB27288DE22FC5
:10034000FF27898D682F772740E050E015E430E0E3
:100350004C155D050CF434E04E155F050CF4386067
:100360004A175B070CF430614E175F070CF43062DC
:10037000461757070CF4306432BB0000000030E130
:100380002A8D822F9927481759070CF431E1822DC5
:100390009927481759070CF43260832D992748177D
:1003A00059070CF43460802F9927481759070CF42B
:1003B000386038BB0000000011504F5F5F4F17FFDF
:1003C000C6CF73CE002480FD060E660F11F0869511
:1003D000D1F7802D08955527002480FF02C0060E16
:1003E000571F660F771F6115710521F09695879548
:0C03F000009799F7952F802D0895FFCFFE
:00000001FF
